S01800006275696C642F6D6963617A2F6D61696E2E73726563E5
S11300000C9449000C9404050C940E050C941805EA
S11300100C9422050C942C050C9436050C942007A2
S11300200C9440050C9468000C9468000C945E14C5
S11300300C94FC150C94CE040C94E4040C944A0522
S11300400C94BD040C94CC0E0C9468000C946800C1
S11300500C9468000C9468000C9468000C9468007C
S11300600C94D9040C9468000C9468000C946800F7
S11300700C9468000C9468000C9468000C9468005C
S11300800C9468000C9468000C94680000081C1818
S1130090141011241FBECFEFD0E1DEBFCDBF11E09D
S11300A0A0E0B1E0E8E3F7E300E00BBF02C0079093
S11300B00D92AE33B107D9F712E0AEE3B1E001C05F
S11300C01D92AD39B107E1F70E948A160C949B1B6F
S11300D00C9400008FB7F894992708958FBF089562
S11300E0FC0182819927582F442781819927482B25
S11300F0592BCA01892F992786958695837090700C
S11301008230910559F08330910559F0892B19F407
S113011020E030E008C02CE93FEF05C022E030E0E9
S113012002C028E030E0CA0184E0989F812D99271D
S113013011248230910559F08330910559F0892BAF
S113014019F480E090E008C08CE99FEF05C082E0DC
S113015090E002C088E090E0280F391F2A5F3F4FEB
S1130160CF01820F931F0895282F9FB7F894662319
S113017049F0E82FFF27E35EFD4F8081882311F0CB
S113018021E006C0E22FFF27E35EFD4F608320E0FD
S1130190892F99278FBF822F99270895E82F8FB72A
S11301A0F894282F332790E0FF27E35EFD4F8081EA
S11301B0861709F491E02FBF892F99270895882382
S11301C011F06E9A08956E980895882311F06F9A2D
S11301D008956F98089580E00E94DF00BA9ABB9852
S11301E0B99AB89A6C9A80E00E94E5006B986A9874
S11301F081E00E94DF00709A8DB18C7F8DB90895E3
S11302000F931F93CF93DF93182F8FB7F894C82FB2
S1130210DD270C2F61E080E00E94B400882321F0E8
S1130220CFBF85E090E024C0809130018823A1F401
S113023080914C01823081F409C082E080934C01AA
S1130240109230010E94EB00B89AC09810932D01CF
S113025080E00FBF99270CC080914C01882369F37B
S11302608FB7F894992710921D028FBF81E0F1CFC8
S1130270DF91CF911F910F910895282F9FB7F89484
S1130280E82FFF27E059FE4F80818F3F81F4E091F2
S11302909702E21771F40BC02093880204C0FF2771
S11302A0E059FE4F20832093970220E007C025E009
S11302B005C0809188028F3F91F7EECF892F99274F
S11302C08FBF822F992708951F93182F81E00E94D2
S11302D0DF001FB9779BFECF8FB199271F91089537
S11302E08F929F92AF92BF92CF92DF92EF92FF9242
S11302F00F931F93CF93DF938FB7F8949927C090F0
S11303009102D09092028090160290901702C091B0
S1130310E301D091E4012091550130915601EAE0C6
S1130320AE2EB12CAC0EBD1E2A153B0508F45901A6
S11303308FBF7401EC0EFD1E86010C0F1D1F14C02F
S1130340C114D10419F0F801808101C080E00E9439
S113035064018114910411F0F701808321960894BB
S1130360E11CF11C0F5F1F4FC5010197C817D90786
S113037038F381E00E94E5009FB7F894C114D104DA
S113038031F0CC0EDD1EF60180818FB901C01FB89B
S1130390D093E401C093E301892F99278FBF80E0B4
S11303A090E0DF91CF911F910F91FF90EF90DF903C
S11303B0CF90BF90AF909F908F9008952FB7F894EF
S11303C033275093560140935501909392028093A2
S11303D0910270931702609316021092E401109236
S11303E0E3012FBF452B29F08FB10E94700199279B
S11303F0089589E00E943D0180E090E008958FB760
S1130400F894992710921F028FBF08957FB7F8942C
S113041062B7209158013091590140915A0150918D
S11304205B0106B601FE0FC081B792B7280F311DDC
S1130430411D511D2F5F3F4F4F4F5F4F290F311DFE
S1130440411D511D04C0260F311D411D511D872F13
S113045099278FBFCA01B90108959C0110923E01EA
S1130460E0E0FF27DF01A20FB31FE60FF71F808133
S1130470FD018183E0913E01EF5FE0933E01E531B0
S113048080F308952F923F924F925F926F927F92E2
S11304908F929F92AF92BF92CF92DF92EF92FF9290
S11304A00F931F93CF93DF93CDB7DEB729970FB682
S11304B0F894DEBF0FBECDBF6FB76983F894209068
S11304C0C7013090C8014090C9015090CA01662408
S11304D077248824BEE4AB2EA3E8BA2ECC24DD24F2
S11304E0EE24FF2400E010E0222D332D442D552D61
S11304F0662D772D882D90E00E9481182A833B83F6
S11305004C835D836E837F8388879987822E932EA5
S1130510A42EB52E2401350100E20E947F19A22EDB
S1130520B32EC42ED52EA301920156954795379527
S113053027952A0D3B1D4C1D5D1D57FF05C05F7798
S11305402F5F3F4F4F4F5F4F2093C7013093C80138
S11305504093C9015093CA01E9818E2F99278FBF17
S1130560CA01B90129960FB6F894DEBF0FBECDBFFC
S1130570DF91CF911F910F91FF90EF90DF90CF907B
S1130580BF90AF909F908F907F906F905F904F90AF
S11305903F902F900895DF92EF92FF920F931F9355
S11305A08FB7F894282F3327D22E91B782B746B746
S11305B0981711F041FF02C02FBF6AC08091E20179
S11305C08823E1F10E940602E0901902F0901A02D9
S11305D000911B0210911C0220916A0130916B0161
S11305E040916C0150916D016E197F09800B910B44
S11305F0621773078407950720F01092E20171E0F7
S11306001EC02E0D3F1D401F511F80915801909117
S11306105901A0915A01B0915B01281B390B4A0B77
S11306205B0B273E31054105510540F4822F2230F2
S113063010F070E005C070E082E002C070E086EE69
S1130640682F615000B601FCFDCF82B7681709F42A
S11306506F5F209158013091590140915A01509196
S11306605B01DA01C9010196A11DB11D860F911D1F
S1130670A11DB11D82179307A407B50710F4622FBB
S1130680609561BFDFBE772319F08CE00E943D01C5
S11306901F910F91FF90EF90DF900895AFB7F894FA
S11306A0BB27E1E0E093E2016093190270931A0220
S11306B080931B0290931C0220936A0130936B0178
S11306C040936C0150936D01AFBF0E94CB0208951B
S11306D0DC0110923E0120E030E0A9014F5F5F4F42
S11306E0FD01E40FF51F9081FB01E20FF31F8081F0
S11306F0891711F080E009C0822F8F5F80933E013B
S11307009A014531510549F781E09927089580E818
S113071080936E011092BE0110928B021092870298
S1130720109286010895CF93DF93FC0115A6DC0196
S11307309E96ED011B821A82198280E886A7DF91BA
S1130740CF9108958FB7F8946091E7017091E80113
S11307502CB53DB506B602FE04C06F5F7F4F2CB5C5
S11307603DB599278FBF88279927CB01772766271F
S113077044275527622B732B842B952B0895EF92D6
S1130780FF920F931F930E94A2037B018C0120917F
S1130790D2013091D3014091D4015091D50180917F
S11307A0CD019091CE01A091CF01B091D001820FE3
S11307B0931FA41FB51FE216F3060407150730F0B4
S11307C082179307A407B50758F005C0821793074B
S11307D0A407B507E0F5E816F9060A071B07B8F5FC
S11307E09C01AD012E193F09400B510B213060E8EB
S11307F0360760E0460760E0560768F180E090E85D
S1130800A0E0B0E0E80EF91E0A1F1B1FE092D2011F
S1130810F092D3010093D4011093D50180E090E8C5
S1130820AFEFBFEFE80EF91E0A1F1B1F2050304820
S1130830404050402093CD013093CE014093CF01EE
S11308405093D00120E030E840E050E014C020E0B4
S113085030E040E050E08093D2019093D301A09324
S1130860D401B093D5011092CD011092CE01109213
S1130870CF011092D001A901B7012CB53DB5C90132
S11308808E199F0903968417950720F0B9016D5FAF
S11308907F4F02C0640F751F6115710511F461E08B
S11308A070E0615070407BBD6ABD80E186BF87B750
S11308B0806187BF1F910F91FF90EF9008950F9370
S11308C01F930FB7F89411276093D2017093D3014B
S11308D08093D4019093D5012093CD013093CE0120
S11308E04093CF015093D0010E94BF030FBF1F91CB
S11308F00F91089597B79F7D97BF90E296BF882385
S113090019F08EB5806402C08EB58F7B8EBD87B71B
S1130910806287BF80E090E00895AF92BF92CF924B
S1130920DF92EF92FF920F931F93CF93DF93CDB794
S1130930DEB728970FB6F894DEBF0FBECDBF20E018
S113094070E0E0912A01F0912B0132E14DE65CE484
S11309506FE480912B019E2F28960FB6F894DEBF8A
S11309600FBECDBFDF91CF911F910F91FF90EF90FC
S1130970DF90CF90BF90AF9008951F920F920FB663
S11309800F9211248F9383B783BF00B600FCFDCF71
S11309908F910F900FBE0F901F90189578941F920F
S11309A00F920FB60F9211240F900FBE0F901F904D
S11309B0189578941F920F920FB60F9211240F90EE
S11309C00FBE0F901F90189578941F920F920FB638
S11309D00F9211242F933F938F939F932FB7F894E3
S11309E033278091E7019091E80101969093E80103
S11309F08093E7012FBF9F918F913F912F910F908B
S1130A000FBE0F901F9018951F920F920FB60F9262
S1130A1011240F900FBE0F901F9018951F920F92E4
S1130A200FB60F9211240F900FBE0F901F901895C0
S1130A301F920F920FB60F9211240F900FBE0F90BA
S1130A401F9018951F920F920FB60F9211240F90BA
S1130A500FBE0F901F9018951F920F920FB60F9212
S1130A6011240F900FBE0F901F9018951F920F9294
S1130A700FB60F9211240F900FBE0F901F90189570
S1130A801F920F920FB60F9211240F900FBE0F906A
S1130A901F9018951F920F920FB60F9211242F9347
S1130AA03F934F935F936F937F938F939F93AF93F2
S1130AB0BF93EF93FF9383B783BF00B600FCFDCFD2
S1130AC081B799270196AA27BB2720915801309115
S1130AD0590140915A0150915B01280F391F4A1F57
S1130AE05B1F209358013093590140935A0150934E
S1130AF05B0178940E94CB02FF91EF91BF91AF917B
S1130B009F918F917F916F915F914F913F912F9121
S1130B100F900FBE0F901F901895EF920F931F9395
S1130B20AE2D99E0899FF0011124E751FE4F4083D7
S1130B305183628373830483158326833783A1706F
S1130B4080858E7F8A2B826080878DE00E943D01A4
S1130B501F910F91EF900895AF92BF92CF92DF92C1
S1130B60EF92FF920F931F93F82E5A016B010E948C
S1130B700602AB01BC01EE24960185018F2D0E9473
S1130B808D051F910F91FF90EF90DF90CF90BF9054
S1130B90AF9008950F931F93182F0FB7F89461E047
S1130BA080E00E94B400882371F510932D01809198
S1130BB030018823A9F580914C01823089F588E0C1
S1130BC00CC00E94EB0080914C01882349F481E021
S1130BD080934C01109287018AE00E943D012AC053
S1130BE08091D1018F3F31F5E0912F01EE2311F176
S1130BF01CC010922E0104C0FF27EF52FE4F10823A
S1130C0010922F0117C081E090E002C0880F991F55
S1130C101A95E2F720914B01282B20934B010AC02F
S1130C2080914C018823E1F6CCCF80912E018F3F37
S1130C3019F7DFCF802F99278FBF80E090E01F91B5
S1130C400F9108951F9383E00E9400019927182FA4
S1130C50882319F083E00E94CA05812F99271F91E8
S1130C600895CF92DF92EF92FF920F931F93CF9349
S1130C70DF938C01F62E6A01E22E8FB7F894C82F09
S1130C80DD2760E080E00E94CE00882321F0CFBF02
S1130C9080E090E01EC0CFBF0F0D111D802F806833
S1130CA00E946401F82E16950795802F807C0E947F
S1130CB064010E2D0AC0EE2DFF27E01BF109EC0D97
S1130CC0FD1D80810E94640101500023A1F78F2D36
S1130CD09927DF91CF911F910F91FF90EF90DF90B3
S1130CE0CF900895CF93DF93CDB7DEB72C970FB68F
S1130CF0F894DEBF0FBECDBF8FB7F894282FAE0196
S1130D004F5F5F4FDA01E3E2F2E088E001900D9279
S1130D108150E1F78091C2019091C3018987892FA5
S1130D2099278A878091D6019091D7018B87892F43
S1130D3099278C872FBF2CE060E080E691E00E9429
S1130D4031062C960FB6F894DEBF0FBECDBFDF91EF
S1130D50CF9108951F93CF93DF93182F8FB7F894F3
S1130D60C82FDD2760E080E00E94CE00882321F0B8
S1130D70CFBF80E090E005C0CFBF812F0E94640107
S1130D809927DF91CF911F910895EF92FF920F93CE
S1130D901F93CF93DF93182F7B01042F8FB7F89401
S1130DA0C82FDD2760E080E00E94CE00882321F078
S1130DB0CFBF80E090E014C0CFBF1064812F99278B
S1130DC09093DB018093DA010E946401182F402F75
S1130DD05527B70180E090E00E94DE01812F99271A
S1130DE0DF91CF911F910F91FF90EF900895C098DC
S1130DF0609153017091540141E08FE30E94C50654
S1130E00089582E090E09093800180937F0181E0D7
S1130E108093BE0120E030E080912D01843011F4F4
S1130E2021E030E0232B29F484E00E940001882390
S1130E3019F40E94F706089584E00E94CA050895F3
S1130E401F920F920FB60F9211242F933F934F933B
S1130E505F936F937F938F939F93AF93BF93EF931E
S1130E60FF9380917F0190918001019749F482E082
S1130E7090E09093800180937F010E94010705C058
S1130E80809186018F5F80938601FF91EF91BF91DE
S1130E90AF919F918F917F916F915F914F913F910E
S1130EA02F910F900FBE0F901F9018951F93809154
S1130EB04B01882309F04BC010912D011F3F09F00D
S1130EC046C060E00E94CE00882309F440C081E05F
S1130ED080932C0280916F018823E1F110922C02FF
S1130EE085E090E045C0923069F5C09A80912E016A
S1130EF020E030E08F3F11F421E030E0232BE9F4CF
S1130F00109330018F3F19F42FEF30E00DC0282FDC
S1130F103327F901EF52FE4F808180932E018F3FDA
S1130F2011F410932F0110832093870181E08093A3
S1130F304C018AE00E943D0105C0109330011092DB
S1130F404C0111C080914C01882369F00FC081E0ED
S1130F5090E00EC08091300190914C01882319F2E9
S1130F60923021F0EFCF80E00E94DF0080E090E03B
S1130F701F9108951F93CF93DF939FB7F894C92FC0
S1130F80DD271C2F90912D01981721F0CFBF81E010
S1130F9090E03AC08FEF80932D0130914B013323C1
S1130FA0F1F48FB7F894992710921D028FBF0E9415
S1130FB05607CFBF11C020932D0181E090E002C0FD
S1130FC0880F991F4A95E2F78095382330934B0197
S1130FD088E00E943D011FBF80E090E015C080E0E2
S1130FE065E0E32FFF270E94021A292F492F552776
S1130FF0CF01042E02C0959587950A94E2F780FDEF
S1131000DACF822F8F5FEFCFDF91CF911F910895B9
S11310101F93CF93DF938FB7F894C82FDD271C2F2E
S113102080917F0190918001892B29F484E00E94B2
S1131030BA07CFBF1EC01092BE01809186018823DB
S113104011F0B79904C00E9908C0882319F0815093
S1131050809386010E9401070BC081E090E0909389
S1131060800180937F011092860184E00E94BA0778
S11310701FBFDF91CF911F9108950E948703C09AEB
S1131080C09888E00E94AA0688E00E94AA06C09A36
S113109084E00E94BA070E9408080895FF920F9303
S11310A01F93CF93DF93F82E8B018FB7F894C82F3B
S11310B0DD2760E080E00E94CE00882321F0CFBFCE
S11310C080E090E00CC0CFBF8F2D0E946401812F7F
S11310D099270E946401802F0E9464019927DF915F
S11310E0CF911F910F91FF9008951F931FB7F8940C
S11310F080918501882319F460E070E009C060E004
S113110080919002882309F461E081E068277727C1
S11311108091C401882319F480E090E00AC090E033
S113112080912202882309F491E081E09827892F95
S11311309927762F6627770F770F770FF4E0880FBC
S1131140991FFA95E1F7826E9262682B792B81E1FF
S11311500E944E08812F99278FBF1F9108958FB742
S1131160F894992760912B028FBF85E0689FB001A6
S11311701124625D7E4F706488E10E944E080895D8
S1131180EF92FF921F93CF93DF93E090C501F0900D
S1131190C601F70182A59927182F882309F41FE1B6
S11311A0C09880918401811749F0612F77276F716E
S11311B07070606E706885E10E944E08109384011F
S11311C0F70110818FB7F894C82FDD2760E080E025
S11311D00E94CE00882311F0CFBF12C0CFBF8EE390
S11311E090E09093DB018093DA018EE30E94640126
S11311F01150412F552760E070E0C7010E94DE01C5
S1131200DF91CF911F91FF90EF9008950F931F935B
S1131210CF93DF93EC010FB7F89411270E9470006D
S1131220FC018FE380830FBF10928E0210928D0217
S113123061E082E00E94B400882319F085E090E028
S113124072C080912D028F5F80932D0281508B8319
S11312508FB7F894082F112762E081E00E94CE0036
S1131260882329F40FBF0E94FF0181E05BC08FB780
S1131270F894992724E020931E028FBFD093E101B4
S1131280C093E0010FBFFE01319681812981992726
S1131290982F88273327822B932B80729C7C8983F9
S11312A0892F992781832981982F882733272164BF
S11312B0822B932B8983892F992781831CA618A6B7
S11312C019A619AA18AA1FA680E88EA761E0609340
S11312D021024091E0015091E1018FB7F894282F49
S11312E0332780914D0190914E018830910511F082
S11312F0019711F02FBF15C082E090E090934E014A
S113130080934D01609398025093C6014093C501A8
S1131310109257012FBF0E942206882311F40E94C5
S1131320C00880E09927DF91CF911F910F91089514
S1131330CF93DF93DA01422F2D3118F082E090E051
S11313405EC0ED018B876E83872F99278F832FB71C
S1131350F89433278091C2019091C3012FBFFD01FE
S11313608483892F992785832FB7F8943327809115
S11313703101909132012FBF8887892F992789875E
S11313803196818129819927982F882733272064D2
S11313903868822B932B8983892F99278183435F14
S11313A04C934D5080913401882359F010923401AC
S11313B0642FCD010E9406099927282F8823A9F4B8
S11313C017C0842F99279093DF018093DE01B09397
S11313D05201A09351018EE00E943D01809134019D
S11313E0882349F489E090E00AC08FEF80933401A8
S11313F0822F992704C01092CB0180E090E0DF9106
S1131400CF91089510922C01E091E501F091E6014D
S1131410309721F080918C0280FF08C081E0809396
S11314202C01089581E00E943D01089520812D50F2
S1131430332767817727762F662786819927682B3C
S1131440792BAF0183850E949809882359F7089561
S1131450CF93DF93FB01DB0116968683892F9927AF
S1131460ED01898386E083878091E5019091E6010F
S1131470892B19F085E090E02BC0F093E601E0930E
S1131480E501435F40834D5080912C01882319F47A
S113149080E090E01DC08385ED0169817727762F78
S11314A0662726813327622B732B10922C01242F5D
S11314B0AF010E9498099927282F882339F081E0E9
S11314C080932C011092E6011092E501822F992756
S11314D0DF91CF9108951F9380914401882309F0EF
S11314E057C011E01093450180912A0190912B017E
S11314F082309105C9F08330910520F4019709F0F9
S113150047C007C083309105C9F0049709F040C073
S11315101FC01093960160E071E086E991E00E949B
S11315202D021093AD011FC01093960160E071E08D
S113153086E991E00E942D0282E013C01093960187
S113154065E171E086E991E00E942D0283E009C023
S11315501093960165E171E086E991E00E942D0205
S113156084E08093AD011093AC011092AE0110920F
S1131570AF011092B0018091BF014BE16AE871E0C4
S113158099270E94280A882319F481E08093440152
S11315901F9108951F9380914401882309F06BC023
S11315A080912A0190912B0182309105F1F08330D2
S11315B0910520F4019709F05EC007C083309105BE
S11315C019F1049709F057C02EC060E071E07093E0
S11315D0C1016093C00111E01093960186E991E086
S11315E00E942D021093AD012EC060E071E0709353
S11315F0C1016093C00181E08093960186E991E086
S11316000E942D0282E01DC065E171E07093C1016A
S11316106093C00181E08093960186E991E00E9485
S11316202D0283E00EC065E171E07093C101609307
S1131630C00181E08093960186E991E00E942D0229
S113164084E08093AD011092AC011092AE0110922F
S1131650AF011092B0014BE16AE871E08FEF9FEFA8
S11316600E94280A882339F480914401882319F4BC
S113167081E0809344011F910895EF920F931F938B
S1131680CF93DF93C6E9D1E00E940602AB01BC010F
S1131690F1E0EF2E0AE010E020E030E084E00E9468
S11316A08D0580912E028093AE018091CC018093B0
S11316B0AF01909193029D3410F481E00FC0892F03
S11316C08D548D3410F482E009C0892F8A598D34E9
S11316D010F483E003C0973E18F084E08093820105
S11316E0809182018A8F80914401882309F03FC050
S11316F080912A0190912B018230910559F412E0D6
S11317001093960160E071E086E991E00E942D0259
S11317101F8B0DC0049759F582E08093960165E113
S113172071E086E991E00E942D0284E08F8B81E0D4
S11317308E8B80918C019927982F882720918B017B
S113174033272062822B932B80938B01892F992737
S113175080938C018091BF014BE16AE871E0992785
S11317600E94280A882319F481E080934401DF91C0
S1131770CF911F910F91EF9008958A58914011F4E1
S11317801092440180914601882361F08091B60152
S1131790882331F080913F018F5F80933F0108954A
S11317A00E943D0B0895AF92BF92CF92DF92EF92C9
S11317B0FF920F931F93CF93DF935B016C01C0E003
S11317C0D0E0E9EEF1E0608561FF73C020813181F2
S11317D042815381E480F58006811781D601C501D9
S11317E0821B930BA40BB50B8E159F05A007B107A5
S11317F008F45FC060FF03C06D7F608708C02E0DD2
S11318003F1D401F511F2083318342835383C230C5
S1131810B1F1C430B9F1C13009F051C08091440133
S1131820882309F04CC080914501882329F18091D7
S1131830FA018D7F8093FA0181E0809346018091C3
S11318402A0190912B018230910519F08430910581
S113185031F440E157E260E070E082E00AC0813098
S1131860910511F0039759F540E65AEE60E070E0F7
S113187083E00E94AC0523C00E94CA0A20C00E94D3
S11318803D0B1DC00E9442029B0144275527297429
S1131890327944725070232F342F452F552747FD3A
S11318A05A9520932E026093CC01620F60939302A9
S11318B006C021963996C530D10509F084CF8DE054
S11318C00E943D01DF91CF911F910F91FF90EF9006
S11318D0DF90CF90BF90AF9008951F93182F81E0B1
S11318E090E090934E0180934D0110926F010E94FD
S11318F056078FB7F8949927109347018FBF84E058
S11319000E943D011F9108951F93CF93DF93142FDD
S113191080912C01882389F4C091E501D091E601DE
S1131920C617D70751F41092E6011092E5010E9400
S1131930020A612FCE010E94BD0BDF91CF911F914E
S11319400895CF92DF92EF92FF920F931F93CFB639
S1131950F894DD240E944202DC01CB0166E470E0CD
S11319600E940E1ABBE0EB2EF12CE80EF91EF09249
S11319709502E09294020E94A20300271127A80175
S113198097010E945F04CFBE1F910F91FF90EF90CB
S1131990DF90CF9008951F93CF93DF938FB7F89480
S11319A0C82FDD271C2F80914D0190914E0108977F
S11319B0C9F489E00E94AA0683E00E94BA07C09A8B
S11319C081E090E090934E0180934D018FB7F8949D
S11319D0992723E0209347018FBF84E00E943D01B3
S11319E0CFBF30C0C09880919802882311F085E061
S11319F001C084E00E94AA0683FD09C080E00E9421
S1131A00AA0683FF04C085E090E020E003C083E0E1
S1131A1090E021E090934E0180934D01C09A1FBF46
S1131A20222341F01092570183E00E94BA070E94DA
S1131A30A10C08C00E94A20320E431E040E050E081
S1131A400E945F04DF91CF911F910895EF92FF925E
S1131A500F931F93CF93DF938B018091DA019091C1
S1131A60DB0186FF40C18F7B8F3309F08EC1C091AB
S1131A705301D091540158815093810180917F0189
S1131A80909180018530910509F443C08630910519
S1131A9009F48AC0029709F01FC185E090E0909391
S1131AA0800180937F0140916E01852F99270196D3
S1131AB0242F3327281739074CF1B79906C00E99FC
S1131AC004C0451B415040936E01409181014A324C
S1131AD0E8F44423A1F0BE016F5F7F4F483018F053
S1131AE047E050E007C086E090E090938001809347
S1131AF07F01552780E090E00E94DE0146C11092EC
S1131B00BE01C09A84E00E94BA07E3C00E943D0867
S1131B103CC186E090E09093800180937F018091A6
S1131B20C401882309F439C0809122028823A9F5CD
S1131B30898185FF32C08F814E812FB7F894332776
S1131B406091D6017091D7012FBF9927982F8827CC
S1131B505527842B952B8617970759F08F812E8153
S1131B609927982F88273327822B932B8F5F9F4F9A
S1131B70A1F489818770813081F4C09AC0988AE089
S1131B800E94AA06C09AC0984091810147502896A5
S1131B90BE018FE30E94C506F8C040918101475001
S1131BA055272896BE01A6CFC09A80918601882326
S1131BB039F484E00E94BA0780918601882311F0E9
S1131BC0B7990AC00E9B08C090918702992321F00F
S1131BD0809181018B3038F48091530190915401AC
S1131BE00E9493033DC0913001F5E0918B02FF27E1
S1131BF0EE0FFF1FEE0FFF1FED5CFD4F20813181C3
S1131C0042815381E0915301F091540121ABBB27F0
S1131C10A52F942F832F80ABCA01AA27BB2787A7A0
S1131C20252F33274427552726A780918B029927F0
S1131C30019668E070E00E94221A80938B028091E2
S1131C408702815080938702882351F08091530149
S1131C50909154010E94930310928B021092870278
S1131C6080918101FE01E80FF11D808187FF31C061
S1131C70012B79F169816770E0915301F09154016E
S1131C80623019F5A091C501B091C601109709F110
S1131C9080914D0190914E010797D9F4ED019B81FC
S1131CA083819817B1F487B78F7E87BF908181E0D5
S1131CB08CA7E90FF11D8291319688A780818F77D7
S1131CC089A780E00E946D0C04C0613011F48BE0A0
S1131CD02AC00E94080859C01092BE01C09A84E02C
S1131CE00E94BA0752C08E3309F04FC0C09A809147
S1131CF04D0190914E010897C9F4C09889E00E9463
S1131D00AA06C09A83E00E94BA0781E090E090930B
S1131D104E0180934D018FB7F894992723E02093C7
S1131D2047018FBF84E00E943D012FC0809198023B
S1131D30882349F484E090E090934E0180934D0110
S1131D400E94CB0C22C083E00E94BA0783E090E09B
S1131D5090934E0180934D010E944202DC01CB011D
S1131D6066E371E00E940E1A1BE0E12EF12CE80EEE
S1131D70F91EF0926901E09268010E94A203002713
S1131D801127A80197010E945F04DF91CF911F9151
S1131D900F91FF90EF9008951F920F920FB60F923C
S1131DA011242F933F934F935F936F937F938F935C
S1131DB09F93AF93BF93EF93FF932FB1E0911602DC
S1131DC0F0911702309739F08091E3019091E4018A
S1131DD0E80FF91F20838091E3019091E4010196BB
S1131DE09093E4018093E30180E00E94E500409138
S1131DF05501509156018091E3019091E4018417BB
S1131E00950718F40E9470011CC06091160270912D
S1131E1017028091910290919202109217021092EF
S1131E201602109292021092910210925601109290
S1131E3055011092E4011092E3012FB120E00E94B9
S1131E40260DFF91EF91BF91AF919F918F917F915B
S1131E506F915F914F913F912F910F900FBE0F9013
S1131E601F901895AF92BF92CF92DF92EF92FF929C
S1131E700F931F93CF93DF93CDB7DEB7A8970FB619
S1131E80F894DEBF0FBECDBF873009F439C1883066
S1131E9098F4833009F4BBC0843038F4813009F4F9
S1131EA04BC0823008F05EC01DC0853009F406C105
S1131EB0863008F01EC1B1C08B3009F44EC28C309C
S1131EC038F4893009F412C28A3008F032C251C1A0
S1131ED08D3009F447C48D3008F411C48E3009F0F4
S1131EE0BFC498C480918C02882309F4B9C490E0DB
S1131EF011E020918C02812F8223C1F0E92FFF276A
S1131F00EE0FFF1FEB51FE4F408151811182108271
S1131F10812F8095282320938C02992339F463E040
S1131F20CA010E94BD0B110F91E0E3CF9F5F98306F
S1131F3008F096C4110FDDCF10912C01E12FFF277B
S1131F40EE0FFF1FEB51FE4FE080F18011821082F3
S1131F500E94020A112309F083C461E0C7010E94B0
S1131F60BD0B7EC40FB7F894112781E00E947A0458
S1131F7041E0E42EF12CF0924E01E0924D011092DA
S1131F804F0110926F01109284010FBF0FB7F894A4
S1131F9011270E948703F0928001E0927F01109242
S1131FA0BE0189B78F7B89BF80E488BF8AB780620E
S1131FB08ABF8AB78F7E8ABF89B7806489BF0FBF03
S1131FC08FB7F894082F1127809148019091490107
S1131FD0049719F483E00E94AA060FBF0FB7F89480
S1131FE01127C09A80E00E94BA070FBF8FB7F894F8
S1131FF0992722E020931E028FBF48EE53E060E051
S113200070E081E00E94AC050E94CA0A29C48FB71F
S1132010F894992710921E0271C08FB7F8949927EB
S1132020F09047018FBF63E081E00E94CE008823D7
S113203059F10FB7F894112710924E0110924D01E7
S113204087B78F7E87BF87B78F7D87BF83E00E9466
S1132050BA07C09A0FBF0FB7F894112710928001E6
S113206010927F010E948703C09A89B78F7B89BF32
S11320700FBF1092490110924801DE98DD98DE9A54
S113208083E00E943D0107C08FB7F894992722E0AE
S113209020931E028FBF0091E0011091E1010E9484
S11320A0FF0180918D0290918E02892B09F0D8C393
S11320B08FEF809334014F2DB801CAC38FB7F894C2
S11320C0282F3327122F80919602882309F581E067
S11320D0809396028091480190914901049721F4DC
S11320E081E00E94CA0503C086E00E943D011FBF33
S11320F0B7C38FB7F8949927109296028FBFB0C3D5
S11321008FB7F894282F332780914A01882311F040
S11321102FBFA6C32FBF80B3992736E09695879526
S11321203A95E1F7182F11709091D8018091D90157
S11321308917D9F01917C9F484E090E09093490104
S1132140809348018FB7F894992721E020934A019E
S11321508FBF60E070E08DE10E944E080E9472061D
S1132160C09AC09882E00E943D011093D90187E093
S11321706DC08FB7F894992710912D018FBF12303D
S113218009F467C0133030F4112359F0113009F009
S113219067C348C0133009F476C0143009F060C333
S11321A0A2C0C0988FB7F894082F112780914801D6
S11321B0909149010297A1F583E090E09093490141
S11321C08093480168E170E08DE10E944E0881E04F
S11321D08093D80110924A0180B3992726E09695FE
S11321E087952A95E1F7817090708093D90187E0F3
S11321F00E943D0181E00E94AA066FE772E08CE133
S11322000E944E080E94AF080E94750866E57AE2B3
S113221087E10E944E086FEF70E885E10E944E0846
S11322200FBF1EC3C09886E00E94AA060E94AF0892
S11322300E9475080E947206C09AC09883E00E94AA
S1132240AA06C09A81E00E94BA0786E00E943D0176
S113225007C3C0988FB7F894082F112760E080E077
S11322600E94CE00882311F00FBF0AC00FBF83E580
S11322700E94640180E00E94640180E00E94640185
S1132280C09A82E02DC08FB7F894992720914D0110
S11322908FBF243039F0283041F0223001F50E94FC
S11322A0C008DEC20E94CB0CDBC2C09889E00E9449
S11322B0AA06C09A83E00E94BA078FB7F8949927B8
S11322C021E030E030934E0120934D018FBF8FB752
S11322D0F8949927109347018FBF84E0B7CF83E028
S11322E00E94BA07BDC20E94F706BAC20FB7F8949B
S11322F01127409155015091560160911602709139
S113230017028091910290919202109217021092FA
S1132310160210929202109291021092560110929B
S113232055011092E4011092E30120E00E94260D71
S113233077CF2FB7F89433278091870180933001AA
S113234082E080934C012FBF80913001882309F0F3
S113235087C2B89AC09888E079CFA0915301B09110
S11323605401DC909D012D0D311DF9018081881FE0
S11323708827881FFD0183A7F90180818F77FD01DC
S113238081A721503040F9018081FD0180A7A091EF
S11323905301B0915401FD0132818FB7F89499270C
S11323A0209185018FBF222309F490C0832F9927A0
S11323B09695879596958795837090708230910550
S11323C041F5878146812FB7F89433276091D60170
S11323D07091D7012FBF9927982F88275527842BD1
S11323E0952B8617970719F481E090E06CC0FD01E6
S11323F08781268140E050E09927982F882733274A
S1132400822B932B8F5F9F4F11F441E050E0CA0160
S11324105AC0039709F06AC19E012F5F3F4F43E200
S113242052E088E0FA010190AF01F90101929F01A5
S11324308150C1F79E012F5D3F4FAE014F5F5F4F4B
S113244088E0FA010190AF01F90101929F018150E6
S1132450C1F79E01275F3F4FAE014F5D5F4F88E09C
S1132460FA010190AF01F90101929F018150C1F776
S11324709E012F5E3F4FAE01475F5F4F88E0FA0138
S11324800190AF01F90101929F018150C1F79E01B2
S1132490275E3F4FAE014F5E5F4F88E0FA01019027
S11324A0AF01F90101929F018150C1F748E050E06A
S11324B0BE01675E7F4FCD0106960E94871B892B64
S11324C009F014C103C0882309F410C1FCE0FD1510
S11324D008F00CC1E0905301F0905401F7012281FF
S11324E0822F9927F6E096958795FA95E1F7039759
S11324F019F468E070E002C062E070E0822F99276E
S1132500969587959695879583709070039719F49F
S113251088E090E002C082E090E026E030E0E20E45
S1132520F31E40E050E020E030E0F701E80FF91F2F
S11325308AEF9FEFE80EF91E05C08191480F511DE7
S11325402F5F3F4F26173707C4F3F70163818FEFDF
S113255080938F028FB7F894782F20E030E0ECE579
S1132560F1E0808191818417950731F48281861787
S113257009F49BC020938F022F5F3F4F3396243082
S1132580310579F77FBF90918F023FB7F8949F3F51
S113259021F080915001891799F420915001822FE4
S11325A09927FC01EE0FFF1FE80FF91FE45AFE4FB5
S11325B05183408362832F5F2370209350010CC0AA
S11325C0892F9927FC01EE0FFF1FE80FF91FE45A2A
S11325D0FE4F518340836283832F99278FBF0FB7A8
S11325E0F8941127C7010E947000FC0190810FBF6D
S11325F0F70183A5882309F475C09F3309F072C0DD
S1132600878146812FB7F894332760913101709107
S113261032012FBF9927982F88275527842B952B74
S11326208617970761F0878126819927982F882735
S11326303327822B932B8F5F9F4F09F053C0F701F1
S11326408385863009F04EC0F8E2DF1609F04AC0EF
S1132650A701445F5F4FF70184859927813039F5DD
S113266020912A0130912B01C9010197029718F496
S113267060E071E007C0235030402230310590F50E
S113268065E171E0CA010E946803882359F1F701EA
S113269083A18093BF0182A1882321F081E08093EC
S11326A0450120C00E946B0A1DC07FBF1BC0823041
S11326B0C9F4F70184A199279093410180934001C3
S11326C085A19927909343018093420180910C0244
S11326D08D7F80930C0240E65AEE60E070E083E068
S11326E00E94AC05F0925401E09253018FB7F89424
S11326F099271092BE018FBF0E940808B1C0809133
S11327008301882361F520912F023091300240919A
S1132710310250913202EFB7F894FF276091190209
S113272070911A0280911B0290911C02E0906A0140
S1132730F0906B0100916C0110916D016E0D7F1D85
S1132740801F911FEFBF20932F02309330024093DC
S1132750310250933202109283010E944E030E9470
S1132760060243C00E9406025B016C018FB7F89415
S113277099271092E2018FBFAFEFEA2EAFEFFA2E46
S1132780AFEF0A2FAFE71A2F60E0E9EEF1E08085A2
S113279081FF1CC080819181A281B381A601950132
S11327A0281B390B4A0B5B0BDA01C90124813581E3
S11327B046815781281B390B4A0B5B0B2E153F05AD
S11327C0400751071CF479018A0161E0399632E02F
S11327D0E631F307E1F6662309F442C01E141F0430
S11327E0100611062CF0C601B5010E94D30B38C0A7
S11327F0E0922F02F09230020093310210933202E1
S113280081E080938301A8019701C601B5010E946C
S11328104E0326C09091CB0180913401981701F1A9
S1132820909334019923C9F40091510110915201FC
S11328306091DE01C8010E940609482F55274423F0
S113284079F08FEF809334016091510170915201BE
S1132850F80183850E94840C03C08FEF80933401B8
S1132860A8960FB6F894DEBF0FBECDBFDF91CF910F
S11328701F910F91FF90EF90DF90CF90BF90AF909A
S11328800895809188028F3FB1F0282F3327F901F2
S1132890E059FE4F8081809388028F3F11F480932A
S11328A097028FEF80832F3F31F0822F0E94320FE7
S11328B081E090E0089580E090E0089578941F927C
S11328C00F920FB60F9211242F923F924F925F9264
S11328D06F927F928F929F92AF92BF92CF92DF922C
S11328E0EF92FF920F931F932F933F934F935F9316
S11328F06F937F938F939F93AF93BF93CF93DF9304
S1132900EF93FF93C6B5D7B58FB7F894282E0E94DE
S1132910A2039B012C1B3D0B442755272B013C0193
S1132920421A530A640A750A80914D0190914E012E
S11329308530910521F0069709F0E0C0BFC086E01C
S113294090E090934E0180934D0131E0332E30920C
S1132950890110924F0180E00E947A04E091C50140
S1132960F091C60141AABB27A72D962D852D80ABDA
S1132970C301AA27BB2787A7872D9927AA27BB2787
S113298086A7E091C501F091C60185A5882309F4C5
S113299084C06081655077274F01860E971EF4012D
S11329A02081E1808281A3809927AA27BB27BA2F9F
S11329B0A92F982F8827332744275527522F442798
S11329C033272227FF24002711278701FF24EE2421
S11329D02E293F29402B512BBB24CC24DD242A292A
S11329E03B294C295D29822B932BA42BB52B8419CD
S11329F09509A609B7098383292F3A2F4B2F552709
S1132A0022839D014427552721838B2F9927AA27A9
S1132A10BB278083C09824E0A40180E090E00E945A
S1132A203106C09AF4012081E1808281A380992734
S1132A30AA27BB27BA2FA92F982F882733274427E3
S1132A405527522F442733272227FF2400271127F5
S1132A508701FF24EE242E293F29402B512BBB2430
S1132A60CC24DD242A293B294C295D29822B932B54
S1132A70A42BB52B840D951DA61DB71D8383292F6B
S1132A803A2F4B2F552722839D0144275527218315
S1132A908B2F9927AA27BB278083E091C501F0914A
S1132AA0C601818185FF02C030926F0183E00E94DC
S1132AB0BA0787B78F7E87BF84997AC0109289013D
S1132AC081E00E947A04E091C501F091C601818100
S1132AD085FF0FC087E090E090934E0180934D01F5
S1132AE00E94A20320E031E040E050E00E945F0435
S1132AF003C080E00E946D0C849B5AC080914F01FA
S1132B00882391F580918901882371F511E0109350
S1132B1089010E947A0480B320918702283098F4B6
S1132B20E0918B02E20FFF27E770F070EE0FFF1FBA
S1132B30EE0FFF1FED5CFD4F408251826282738273
S1132B402F5F2093870210934F01D093DD01C09330
S1132B50DC0184992DC0992774E0969587957A9520
S1132B60E1F7182F117001C010E0809189018130C4
S1132B70F9F4109289010E947A0410924F011123F2
S1132B80B9F48091DC019091DD01C81BD90B2A971F
S1132B9078F480918702882319F08150809387020A
S1132BA08091C5019091C601009711F00E94930392
S1132BB02FBEFF91EF91DF91CF91BF91AF919F9184
S1132BC08F917F916F915F914F913F912F911F91C1
S1132BD00F91FF90EF90DF90CF90BF90AF909F90B8
S1132BE08F907F906F905F904F903F902F900F90B9
S1132BF00FBE0F901F90189578941F920F920FB6E6
S1132C000F9211241F932F933F934F935F936F93CE
S1132C107F938F939F93AF93BF93EF93FF9387B764
S1132C208F7E87BF78941FB7F8948091CD019091DF
S1132C30CE01A091CF01B091D0010097A105B105BB
S1132C4009F051C080914D0190914E01853091055C
S1132C5061F18630910530F48330910549F0049791
S1132C6081F51AC087309105F1F0089751F514C029
S1132C70869B0FC084E090E090934E0180934D01B9
S1132C800E94A20327E030E040E050E00E945F048D
S1132C9018C00E94A10C15C00E942206882389F442
S1132CA00E94CB0C0EC080E00AC089E00E94AA06F4
S1132CB081E00E947A0483E00E94BA0787E00E94C0
S1132CC06D0C8091480190914901019771F482E063
S1132CD090E09093490180934801DE98DE9A80E069
S1132CE00E94CA0502C00E94BF03812F99278FBF8B
S1132CF0FF91EF91BF91AF919F918F917F916F91D0
S1132D005F914F913F912F911F910F900FBE0F90A4
S1132D101F9018951F93CF93DF93CDB7DEB7E0973D
S1132D200FB6F894DEBF0FBECDBF1FB7F8944FE0C7
S1132D3050E06FEF70E080E791E00E94941B8FEF0A
S1132D40809388028093970281E08EBD88E080BFE3
S1132D5083E083BF8CB59DB54AE72CB53DB52817F4
S1132D60390708F44150442311F0C901F6CF92B752
S1132D7082B78917E9F32CB53DB592B782B78917A5
S1132D80E9F38CB59DB5821B930B409645E096956F
S1132D9087954A95E1F790938A028093890213BE3E
S1132DA083B78EBD8EB580BF12BE1DBC1CBC8FEF19
S1132DB086BF86B780937C0080B799278770907010
S1132DC0892BD1F7D29AD19AD09ADA9AD99AD89AE9
S1132DD015BA8FEF84BBD498DC981DBC1CBC87B794
S1132DE0846087BF8EB5887F84608EBD0E94411445
S1132DF08823E1F780912A0190912B010196AA275B
S1132E00BB278093C7019093C801A093C901B093D5
S1132E10CA018FEF80938801ECE5F1E08FEF9FEF1B
S1132E20918380831282339621E0E836F207C1F75A
S1132E300E94420260932D0280912A0190912B01FD
S1132E400196AA27BB278093C7019093C801A0933A
S1132E50C901B093CA0180B7886080BF8BE083BF8B
S1132E6086EE81BF87B7826087BF0E94CB0283E56D
S1132E7092E090935401809353018E98B89A8C9861
S1132E808FEF8093D10110921D0210921E021092B6
S1132E901F0210922002B89AD69AD59A8FB7F89446
S1132EA0992720913101309132018FBF3093D7019E
S1132EB02093D6010E948D0429A73AA74BA75CA7AB
S1132EC06DA77EA78FA798ABDE019196FE01B996F8
S1132ED088E001900D928150E1F7DE015196FE01E8
S1132EE0B19688E001900D928150E1F7DE01599688
S1132EF0FE01719688E001900D928150E1F7A3E202
S1132F00B2E0FE01799688E001900D928150E1F7DC
S1132F108091330199279093C3018093C2018FE17B
S1132F20809318028AE180932B020E948D0429A7C2
S1132F303AA74BA75CA76DA77EA78FA798ABDE0126
S1132F409196FE01B99688E001900D928150E1F7C7
S1132F50DE011196FE01B19688E001900D92815038
S1132F60E1F7DE011996FE01319688E001900D9299
S1132F708150E1F7A3E2B2E0FE01399688E00190C6
S1132F800D928150E1F7A3E2B2E0FD0137969C91E6
S1132F9080818D939083319782E0E632F807B9F708
S1132FA081E080938501109290028093C401109275
S1132FB022020E9441148823E1F7812F99278FBFB1
S1132FC0789485E190E00E948B1A9093C1018093DC
S1132FD0C00161E081E00E94B4008823E9F48FB766
S1132FE0F894282F33278091480190914901892B27
S1132FF011F02FBF1BC081E090E0909349018093B2
S113300048012FBFDD9A0E94A20324E130E040E092
S113301050E00E945F040AC062E081E00E94CE009A
S1133020882321F461E081E00E94CE008FB7F894F8
S1133030482F55274BC087B7992783709070892BE9
S113304019F4E5E0F0E013C080B799278770907019
S1133050892BD1F781B792B7891B8C3030F082B7B6
S1133060853F18F4E3E0F0E002C0E2E0F0E087B767
S1133070887BC1F480917D008B7FA1F46E9912C08E
S11330808AB190919A00892B887161F480917400BF
S113309082FD08C0379B03C081E090E005C085E055
S11330A090E002C080E090E025B78E1708F4E82F86
S11330B0FF27E457FF4FE491237E2062E22BE5BF14
S11330C078948895F89485B78F7D85BF8091880220
S11330D08F3F09F4B0CF282F3327F901E059FE4F71
S11330E08081809388028F3F11F4809397028FEF41
S11330F080832F3F09F49FCF4FBF822F0E94320F4E
S113310095CFACE2B0E0E7E8F8E10C94541A222E33
S1133110332E442E552E662E772E882E992EFE01A0
S11331203196A8E01192AA95E9F729823A824B8256
S11331305C826D827E828F829886FE013996B8E029
S11331401192BA95E9F7A986BA86CB86DC86ED8614
S1133150FE860F87188B89819A81AB81BC8189A7F0
S11331609AA7ABA7BCA77C018D018FEF9FEFA0E0CE
S1133170B0E0E822F9220A231B2389A59AA5ABA56E
S1133180BCA51D014424552489859A85AB85BC853D
S11331908DA39EA3AFA3B8A75C016D018FEF9FEF32
S11331A0A0E0B0E0A822B922CA22DB228DA19EA110
S11331B0AFA1B8A53D0188249924C801B701A6018F
S11331C095010E94351A69A37AA38BA39CA3C80115
S11331D0B701A40193010E94351A7B018C01C2013D
S11331E0B101A60195010E94351A5B016C01C2016F
S11331F0B101A40193010E94351A3B014C01EA0C70
S1133200FB1C0C1D1D1D89A19AA1ABA1BCA19D0194
S1133210442755272E0D3F1D401F511F2A153B05DE
S11332204C055D0540F480E090E0A1E0B0E0680E5C
S1133230791E8A1E9B1ECA01AA27BB27860D971DCD
S1133240A81DB91D8D8F9E8FAF8FB8A3A9013327F9
S1133250222789A19AA1ABA1BCA1A070B070280FAC
S1133260391F4A1F5B1F298F3A8F4B8F5C8FA98CA4
S1133270BA8CCB8CDC8CED8CFE8C0F8D18A1FE01EE
S1133280719698E011929A95E9F7ED8AFE8A0F8B70
S1133290188F2D813E814F8158856DA17EA18FA10C
S11332A098A50E94351A3B014C012D853E854F851A
S11332B0588969A57AA58BA59CA50E94351A2D89E4
S11332C03E894F89588D260F371F481F591F260DD9
S11332D0371D481D591D2D8B3E8B4F8B588F6D8884
S11332E07E888F88988C2A2D3B2D4C2D5D2D662D44
S11332F0772D882D992DE2E1AC960C94701AA0E1FB
S1133300B0E0E5E8F9E10C94541A222E332E442E51
S1133310552E662E772E882E992E002309F466C02A
S113332088E0FE01319611928A95E9F729833A8360
S11333304B835C836D837E838F829887E0E2E01BFE
S11333401E16CCF52D813E814F815885602F77273D
S113335067FD7095DA01C901062E04C0B695A795DC
S1133360979587950A94D2F78D879E87AF87B88BF8
S113337004C0220F331F441F551FEA95D2F78981D9
S11333809A81AB81BC8104C0B695A7959795879522
S11333906A95D2F7282B392B4A2B5B2B29873A873E
S11333A04B875C8729843A844B845C846D847E8457
S11333B08F8498881BC01D861E861F86188A2E2F10
S11333C0332727FD3095309521953F4F8D819E8180
S11333D0AF81B88504C0B695A795979587952A952A
S11333E0D2F789879A87AB87BC87DCCF222D332D10
S11333F0442D552D662D772D882D992DE2E160966B
S11334000C94701A991B79E004C0991F961708F060
S1133410961B881F7A95C9F780950895AA1BBB1B34
S113342051E107C0AA1FBB1FA617B70710F0A61BC0
S1133430B70B881F991F5A95A9F780959095BC01E1
S1133440CD01089597FB092E07260AD077FD04D0F5
S1133450E5DF06D000201AF4709561957F4F08953A
S1133460F6F7909581959F4F0895629FD001739FC1
S1133470F001829FE00DF11D649FE00DF11D929F0C
S1133480F00D839FF00D749FF00D659FF00D99274B
S1133490729FB00DE11DF91F639FB00DE11DF91F6F
S11334A0BD01CF01112408952F923F924F925F9254
S11334B06F927F928F929F92AF92BF92CF92DF9240
S11334C0EF92FF920F931F93CF93DF93CDB7DEB7A5
S11334D0CA1BDB0B0FB6F894DEBF0FBECDBF099439
S11334E02A88398848885F846E847D848C849B8490
S11334F0AA84B984C884DF80EE80FD800C811B819E
S1133500AA81B981CE0FD11D0FB6F894DEBF0FBECC
S1133510CDBFED010895CF93DF93AC01029710F472
S113352042E050E0A0919B02B0919C02FD01C0E0FA
S1133530D0E020E030E020C080819181841795079D
S113354069F482819381209719F09B838A8304C054
S113355090939C0280939B02CF0132C04817590775
S113356038F42115310519F08217930708F49C01EA
S1133570EF010280F381E02D3097F1F6211531053A
S113358089F1C901841B950B049708F4A901E0E0B3
S1133590F0E026C08D919C91119782179307E9F46E
S11335A04817590779F4ED018A819B81309719F006
S11335B09383828304C090939C0280939B02CD01E9
S11335C002964CC0841B950BFD01E80FF91F419333
S11335D0519302978D939C933DC0FD01A281B381C9
S11335E01097C1F68091990290919A02892B41F427
S11335F08091390190913A0190939A0280939902B3
S113360020913B0130913C012115310541F42DB746
S11336103EB78091370190913801281B390BE09116
S11336209902F0919A02E217F307B0F42E1B3F0BB4
S11336302417350788F0CA0102962817390760F065
S1133640CF01840F951F029690939A02809399025A
S113365041935193CF0102C080E090E0DF91CF917C
S11336600895CF93DF93009709F44EC0EC0122979D
S11336701B821A82A0919B02B0919C02109711F1B7
S113368040E050E001C0DC01AC17BD0700F1BB8392
S1133690AA83FE0121913191E20FF31FEA17FB0780
S11336A071F42E5F3F4F8D919C911197820F931F60
S11336B099838883FD01828193819B838A83411549
S11336C0510559F4D0939C02C0939B021DC0FD0187
S11336D082819381AD010097B1F6FA01D383C2834D
S11336E021913191E20FF31FEC17FD0769F42E5F6E
S11336F03F4F88819981820F931FFA0191838083C0
S11337008A819B8193838283DF91CF910895FB010A
S1133710DC0104C08D910190801921F44150504086
S1133720C8F7881B990B0895DC0101C06D934150C3
S10B37305040E0F70895FFCFBB
S11337384176736572323432626D64474A4B45424E
S1133748324A3762004846644E6B4A474234333241
S11337586A6E4745383957316D00010001FFFFFF94
S1113768FF010022FFFFFF20009D0200000071
S9030000FC
